:020000040800F2
:10000000008001207111000811110008131100086F
:100010001511000817110008191100080000000050
:100020000000000000000000000000001B1100089C
:100030001D110008000000001F1100082111000818
:10004000C1110008C1110008C1110008C111000848
:10005000C1110008C1110008C1110008C111000838
:10006000C1110008C1110008C1110008C111000828
:10007000C1110008C1110008C1110008C111000818
:10008000C1110008C1110008C1110008C111000808
:10009000C1110008C1110008C1110008C1110008F8
:1000A000C1110008C1110008C1110008C1110008E8
:1000B000C1110008C1110008C1110008C1110008D8
:1000C000C1110008C1110008C1110008C1110008C8
:1000D000C1110008C1110008C1110008C1110008B8
:1000E000C1110008C1110008C1110008C1110008A8
:1000F000C1110008C1110008C1110008C111000898
:10010000C1110008C1110008C1110008C111000887
:10011000C1110008C1110008C1110008C111000877
:10012000C1110008C1110008C1110008C111000867
:10013000C1110008C1110008C1110008C111000857
:10014000C1110008C1110008C1110008C111000847
:10015000C1110008C1110008C1110008C111000837
:10016000C1110008C1110008C1110008C111000827
:10017000C1110008C11100080000000000000000CB
:08018000C1110008C1110008C3
:1001880010B5054C237833B9044B13B10448AFF3C9
:1001980000800123237010BD0C0000200000000027
:1001A8001C12000808B5034B1BB103490348AFF301
:1001B800008008BD00000000100000201C1200088C
:1001C800104B1B680BB90120704710B504464FF45B
:1001D8007A70B0FBF3F30C4A1068B0FBF3F000F050
:1001E80091F868B90F2C01D9012010BD00222146D1
:1001F8004FF0FF3000F054F8044B1C60002010BD95
:10020800012010BD0000002008000020040000208C
:1002180010B5032000F032F80020FFF7D1FF10B12D
:100228000124204610BD044600F056FFF9E70000FF
:10023800034A1368034909680B441360704700BFF9
:100248002800002000000020014B1868704700BFFC
:100258002800002038B50446FFF7F6FF0546B4F13C
:10026800FF3F02D0044B1B681C44FFF7EDFF401B07
:100278008442FAD838BD00BF00000020074AD3687E
:1002880023F4E0631B041B0C000200F4E060184335
:1002980040F0BF6040F40030D060704700ED00E0EF
:1002A80030B4164BDB68C3F30223C3F10704042CF4
:1002B80028BF04241D1D062D17D9033B012505FA67
:1002C80004F4013C2140994005FA03F3013B134033
:1002D800194300280BDB0901C9B200F1604000F5A1
:1002E800614080F8001330BC70470023E6E700F057
:1002F8000F000901C9B2024B1954F4E700ED00E000
:1003080014ED00E00138B0F1807F0AD2064B586046
:10031800F021064A82F823100020986007221A600C
:1003280070470120704700BF10E000E000ED00E0DA
:10033800F0B583B000239AE04FEAD30E0EF1080E11
:1003480050F82E4003F00706B6000F27B74024EAFE
:1003580007040F6907FA06F6344340F82E4095E083
:1003680086682640CF6807FA0EF73E4386604668DF
:1003780026EA05064F68C7F300179F403E434660CC
:100388004E6806F00307032F00F09B80C5682C40D9
:100398008D6805FA0EF52C43C4604C6814F0805F34
:1003A80064D0544C256E45F001052566246E04F092
:1003B80001040194019C9C08A61C4F4D55F8265039
:1003C80003F00306B7000F26BE4025EA0605B0F184
:1003D800904F00F08180494EB0427FD006F580668C
:1003E800B0427DD006F58066B0427BD006F58066C7
:1003F800B04279D006F58066B04277D006F58066BF
:10040800B04267D00726BE40354302343A4E46F81C
:1004180024503B4C2568D44305EA04064F6817F47A
:10042800803F01D042EA0506354D2E606D6804EA2A
:1004380005064F6817F4003F01D042EA0506304D23
:100448006E60AD6804EA05064F6817F4801F01D096
:1004580042EA05062A4DAE60ED682C404E6816F457
:10046800001F01D042EA0504254AD46001330A6816
:1004780032FA03F43CD001259D402A40F6D04C685E
:10048800022C3FF459AF122C3FF456AF06684FEADE
:10049800430E032404FA0EF4E44326404F6807F0A1
:1004A800030707FA0EF73E4306604E68771E012FD2
:1004B8007FF656AF112E3FF453AF122E7FF460AF84
:1004C8004EE7C76A27EA0505C6F3C0069E402E43D5
:1004D800C6625BE7062696E7002694E7012692E7C0
:1004E800022690E703268EE704268CE705268AE78E
:1004F80003B0F0BD001002400000014000040048B5
:10050800000401400369194201D10020704701200D
:1005180070470AB98162704781617047024B186859
:1005280000F4C060704700BF00700040B0F5007F65
:100538000FD01F4B1B6803F4C063B3F5806F34D032
:100548001B4A136823F4C06343F4806313600020DC
:100558007047174B1B6803F4C063B3F5007F20D0C6
:10056800134A136823F4C06343F400731360114BF8
:100578001A68322303FB02F30F4AA2FB03239B0CE6
:10058800013300E0013B0A4A526912F4806F01D03E
:10059800002BF7D1064B5B6913F4806F03D003205F
:1005A800704700207047002070470020704700BF48
:1005B800007000400800002083DE1B4330B583B084
:1005C8000546204B9B6D13F0805F0BD0FFF7A6FF0D
:1005D800B0F5007F17D0802D1FD82DD0702D2DD0CD
:1005E80000211BE0174CA36D43F08053A365A36D56
:1005F80003F080530193019BFFF790FFA36D23F055
:100608008053A365E4E7802D03D9A02D03D90221E7
:1006180004E0002102E0012100E003210A4A1368F6
:1006280023F007030B431360136803F00703994291
:1006380006D0012003B030BD0221EFE70121EDE72C
:100648000020F7E70010024000200240284A936883
:10065800D26802F0030213F00C030AD00C2B06D068
:10066800042B1FD0082B20D00020024610E0012ABE
:10067800F6D11F4A126812F0080F0CD11C4AD2F8A2
:100688009420C2F303221B4951F8222043B10020D1
:100698000C2B0DD07047164A1268C2F30312F2E70A
:1006A8001046F5E714480022F2E714480022EFE765
:1006B8000F4BDB6803F00303022B15D0032B15D077
:1006C8000B49C868C0F30210431CC868C0F3062071
:1006D80000FB02F0B0FBF3F0CB68C3F341630133D6
:1006E8005B00B0FBF3F0D5E7034AE9E7034AE7E725
:1006F80000100240441200080024F40000127A009E
:10070800002800F0CD82F0B583B00446AB4B9D685D
:1007180005F00C05DE6806F00306036813F0100FF9
:100728007ED0E5B10C2D18D0A369002B00F0B58060
:10073800A24A136843F001031360FFF785FD0746DB
:100748009E4B1B6813F0020F40F09480FFF77CFD6E
:10075800C01B0228F4D90323B7E2012EE4D1974B3A
:100768001B6813F0020F03D0A369002B00F09B82D3
:10077800206A924B1B6813F0080F1DD08F4B1B6823
:1007880003F0F00383421ED2FFF718FF002840F061
:1007980093828A4B1A6842F008021A601A6822F09B
:1007A800F002216A0A431A605A6822F47F42E1691A
:1007B80042EA01225A601EE0804BD3F894301B09AC
:1007C80003F0F003DEE77D4B1A6842F008021A6076
:1007D8001A6822F0F002216A0A431A605A6822F461
:1007E8007F42E16942EA01225A60206AFFF7E6FE89
:1007F800002840F06382FFF729FF704B9B68C3F322
:1008080003136F4AD35C03F01F03D8406D4B186085
:100818006D4B1868FFF7D4FC0346002840F055825A
:10082800236813F0010F57D0082D4CD00C2D48D059
:100838006368B3F5803F6ED0B3F5A02F71D05F4BDE
:100848001A6822F480321A601A6822F480221A6028
:100858006368002B72D0FFF7F7FC0746574B1B68FD
:1008680013F4003F38D1FFF7EFFCC01B6428F5D91B
:1008780003232AE2514B1A6842F008021A601A68E8
:1008880022F0F002216A0A431A605A6822F47F4271
:10089800E16942EA01225A60C2E7484A136823F034
:1008A80001031360FFF7D0FC0746444B1B6813F0A5
:1008B800020FB5D0FFF7C8FCC01B0228F5D90323E7
:1008C80003E2032EB4D13D4B1B6813F4003F03D061
:1008D8006368002B00F0F481236813F0020F4FD0F7
:1008E800042D3CD00C2D38D0E368002B77D0334A48
:1008F800136843F480731360FFF7A6FC06462F4B7A
:100908001B6813F4806F61D1FFF79EFC801B0228DF
:10091800F5D90323D9E1294A136843F480331360D6
:1009280096E703F18043A3F53C331A6842F480222A
:100938001A601A6842F480321A6089E7FFF784FC6B
:1009480007461E4B1B6813F4003FC5D0FFF77CFC1D
:10095800C01B6428F5D90323B7E1022EC4D1174B75
:100968001B6813F4806F03D0E368002B00F0AA81A2
:10097800124A536823F0F853216943EA016353602C
:10098800236813F0080F55D06369002B3BD00B4A3E
:10099800D2F8943043F00103C2F89430FFF754FCC6
:1009A8000646064BD3F8943013F0020F42D1FFF7F6
:1009B8004BFC801B0228F4D9032386E10010024077
:1009C800341200080800002004000020B74A5368C9
:1009D80023F0F853216943EA01635360D0E7B34A2F
:1009E800136823F480731360FFF72EFC0646AF4BA1
:1009F8001B6813F4806FC3D0FFF726FC801B022806
:100A0800F5D9032361E1A94AD2F8943023F0010310
:100A1800C2F89430FFF718FC0646A44BD3F894307C
:100A280013F0020F06D0FFF70FFC801B0228F4D941
:100A380003234AE1236813F0040F7AD09B4B9B6D84
:100A480013F0805F36D1994B9A6D42F080529A65C7
:100A58009B6D03F080530193019B0126944B1B6807
:100A680013F4807F28D0A368012B39D0052B3FD001
:100A78008E4BD3F8902022F00102C3F89020D3F8CF
:100A8800902022F00402C3F89020A368002B3DD0E8
:100A9800FFF7DAFB0746854BD3F8903013F0020FC7
:100AA80046D1FFF7D1FBC01B41F288339842F2D9F7
:100AB80003230AE10026D1E77D4A136843F48073D3
:100AC8001360FFF7C1FB0746794B1B6813F4807F5F
:100AD800C9D1FFF7B9FBC01B0228F5D90323F4E0FD
:100AE800724AD2F8903043F00103C2F89030CCE754
:100AF8006E4BD3F8902042F00402C3F89020D3F84C
:100B0800902042F00102C3F89020BEE7FFF79CFB5B
:100B18000746664BD3F8903013F0020F08D0FFF762
:100B280093FBC01B41F288339842F2D90323CCE0EF
:100B38005EBBA36A002B00F0C7800C2D76D0022B79
:100B480029D05A4B1A6822F080721A601B6813F079
:100B5800205F04D1554AD36823F00303D360534A76
:100B6800D36823F0887323F48033D360FFF76CFBDA
:100B780004464E4B1B6813F0007F55D0FFF764FB0B
:100B8800001B0228F5D903239FE0484A936D23F000
:100B980080539365CDE7454A136823F0807313604B
:100BA800FFF752FB0546414B1B6813F0007F06D048
:100BB800FFF74AFB401B0228F5D9032385E03B4A8F
:100BC800D3683C491940E36A206B013843EA0013B3
:100BD800606B43EA0023E06B4008013843EA405366
:100BE800206C4008013843EA4063A06B000943EADF
:100BF80040430B43D360136843F080731360D3689A
:100C080043F08073D360FFF71FFB0446274B1B6834
:100C180013F0007F06D1FFF717FB001B0228F5D958
:100C2800032352E0002350E000234EE0012B4FD075
:100C38001E4BDB6803F00301E26A914201D00123F5
:100C480043E003F07002216B0139B2EB011F01D0C0
:100C580001233AE003F4FE42616BB2EB012F01D0AD
:100C6800012332E003F40031A26B073A18BF0122D6
:100C7800914201D0012328E003F4C001E26B52083D
:100C8800013AB1EB425F01D001231EE003F0C063DB
:100C9800226C5208013AB3EB426F1BD0012314E0D7
:100CA80001231846704701230FE000BF00100240DF
:100CB800007000408C809DF9012306E0012304E0C8
:100CC800012302E0012300E00023184603B0F0BD31
:100CD8000123FAE70023F8E7002800F09B8070B5AD
:100CE80004464E4B1B6803F007038B420CD24B4A59
:100CF800136823F007030B431360136803F007031B
:100D0800994201D0012070BD0D46236813F0010FF0
:100D180039D06368032B09D0022B26D063BB404A25
:100D2800126812F0020F06D1012070BD3C4A126809
:100D380012F0007F70D03A498A6822F00302134308
:100D48008B60FFF781FA0646354B9B6803F00C036E
:100D58006268B3EB820F16D0FFF776FA801B41F278
:100D680088339842F0D9032070BD2D4A126812F4D6
:100D7800003FE0D1012070BD294A126812F4806F4B
:100D8800D9D1012070BD236813F0020F06D0244A80
:100D9800936823F0F003A1680B4393601F4B1B6813
:100DA80003F007039D420CD21C4A136823F0070383
:100DB8002B431360136803F007039D4201D0012001
:100DC80070BD236813F0040F06D0154A936823F406
:100DD800E063E1680B439360236813F0080F07D0C2
:100DE8000F4A936823F46053216943EAC10393606F
:100DF800FFF72CFC0A4B9B68C3F30313094AD35C27
:100E080003F01F03D840084B1860084B1868FFF719
:100E1800D7F970BD01207047012070BD0020024045
:100E280000100240341200080800002004000020CE
:100E38002DE9F04188B000240394049405940694A5
:100E480007942D4BDA6C42F01002DA64DA6C02F087
:100E580010020092009ADA6C42F00402DA64DA6C4A
:100E680002F004020192019ADA6C42F00202DA649A
:100E7800DB6C03F002030293029BDFF888802246B2
:100E880008214046FFF745FB1C4F22464FF480419E
:100E98003846FFF73EFB1A4D22464FF400712846AC
:100EA800FFF737FB0823039301260496059406945D
:100EB80003A94046FFF73CFA4FF400530393049408
:100EC800059403A92846FFF733FA4FF480430393A8
:100ED80004960594069403A93846FFF729FA4FF4B7
:100EE8000073039304960594069403A92846FFF714
:100EF8001FFA08B0BDE8F081001002400004004865
:100F0800000800480010004810B596B0442200219F
:100F180005A800F077F90024009401940294039442
:100F280004941023059301230B9360230D9305A8C4
:100F3800FFF7E6FB0F2300930194029403940494B3
:100F480021466846FFF7C8FE4FF40070FFF7EEFA37
:100F580016B010BD2DE9F04387B000240194029427
:100F6800039404940594FFF753F9FFF7CDFFFFF7B7
:100F78005FFF4FF400730193029401A95348FFF7F0
:100F8800D7F913E0012208215148FFF7C2FAC82017
:100F9800FFF760F901224FF480414E48FFF7B9FA94
:100FA800C820FFF757F9012D14D003244FF400513E
:100FB8004648FFF7A7FA0546032CF7D801A353F8CC
:100FC80024F000BF8D0F0008E10F0008451000084D
:100FD800A51000080134E9E700224FF480413D489C
:100FE800FFF797FAC820FFF735F94FF40077019714
:100FF8004FF00108CDF80880344E01A93046FFF7BC
:1010080097F9002239463046FFF783FAC820FFF7E0
:1010180021F901970023029301A93046FFF788F9C7
:10102800424608212A48FFF774FAC820FFF712F948
:10103800454501D00024B9E74444B7E7DFF890906C
:10104800012208214846FFF764FAC820FFF702F991
:101058004FF40078CDF80480012602961B4F01A9B1
:101068003846FFF765F9324641463846FFF751FAE8
:10107800C820FFF7EFF8CDF804800023029301A9F8
:101088003846FFF755F9324608214846FFF741FA36
:10109800B54201D0012489E7344487E700224FF4A0
:1010A80080410C48FFF735FAC820FFF7D3F8002233
:1010B80008210748FFF72DFAC820FFF7CBF8012DC4
:1010C80001D0022472E7002470E700BF000800483E
:1010D800001000480004004882B00A4B1A6E42F023
:1010E80001021A661A6E02F001020092009A9A6DC5
:1010F80042F080529A659B6D03F080530193019BE7
:1011080002B07047001002407047FEE7FEE7FEE7B6
:10111800FEE770477047704708B5FFF789F808BDC4
:101128000F49D1F8883043F47003C1F888300D4B6B
:101138001A6842F001021A60002098601A6822F0CA
:10114800A85222F410221A604FF48052DA601A680A
:1011580022F480221A6098614FF000638B60704718
:1011680000ED00E000100240DFF834D0002103E079
:101178000C4B5B58435004310B480C4B42189A42B5
:10118800F6D30B4A02E0002342F8043B094B9A428B
:10119800F9D3FFF7C5FF00F011F8FFF7DBFEFEE714
:1011A800008001207C120008000000200C000020B4
:1011B8000C0000202C000020FEE7000070B50D4E4A
:1011C8000D4CA41BA4100025A54209D10B4E0C4CB4
:1011D80000F020F8A41BA4100025A54205D170BD7D
:1011E80056F8253098470135EEE756F825309847E8
:1011F8000135F2E77412000874120008741200082E
:101208007812000802440346934200D1704703F85D
:10121800011BF9E7F8B500BFF8BC08BC9E4670474B
:0C122800F8B500BFF8BC08BC9E4670473B
:101234000000000000000000010203040607080982
:10124400A0860100400D0300801A060000350C0042
:1012540040420F0080841E0000093D0000127A0005
:101264000024F40000366E010048E801006CDC0242
:04127400AD010008C0
:0412780089010008E0
:0C127C00010000001000000000093D000F
:04000005080011716D
:00000001FF
